:020000040800F2
:100000000020002011010008000000000000000096
:10010000000102030405060708090A0B0C0D0E0F77
:10011000101112131415161718191A1B1C1D1E1F67
:10012000202122232425262728292A2B2C2D2E2F57
:10013000303132333435363738393A3B3C3D3E3F47
:10014000404142434445464748494A4B4C4D4E4F37
:10015000505152535455565758595A5B5C5D5E5F27
:10016000606162636465666768696A6B6C6D6E6F17
:10017000707172737475767778797A7B7C7D7E7F07
:10018000808182838485868788898A8B8C8D8E8FF7
:10019000909192939495969798999A9B9C9D9E9FE7
:1001A000A0A1A2A3A4A5A6A7A8A9AAABACADAEAFD7
:1001B000B0B1B2B3B4B5B6B7B8B9BABBBCBDBEBFC7
:1001C000C0C1C2C3C4C5C6C7C8C9CACBCCCDCECFB7
:1001D000D0D1D2D3D4D5D6D7D8D9DADBDCDDDEDFA7
:1001E000E0E1E2E3E4E5E6E7E8E9EAEBECEDEEEF97
:1001F000F0F1F2F3F4F5F6F7F8F9FAFBFCFDFEFF87
:00000001FF
